:080000000C942A000C9400008E
:100008000C9400000C9400000C9400000C94000068
:100018000C9400000C9445000C9400000C94000013
:100028000C9400000C9400000C9400000C94000048
:100038000C9400000C9400000C9400000C94000038
:100048000C9400000C9400000C940000F894EE2727
:10005800ECBBF1E0FBBFEBBFE5BF8DE0A2E0BB2747
:10006800ED938A95E9F780E098E0A0E6ED93019793
:10007800E9F7EFE5EDBFE8E0EEBFC0E6D2E00C94AB
:100088005200AA93EA93EFB7EA93EBB3A2E0EA2708
:10009800EBBBE991EFBFE991A9911895E2E0EABBC2
:1000A800E0E0EBBBE7BBE8BBE4BBE5BBE1BBE2BB25
:1000B800E3BFE2BFECBFEFBDECE0EEBDE0E0EDBDBD
:1000C800ECBDE7BDE6BDEAE7EBBDE2E1EABDE0E095
:1000D800E9BDE8BDE2BDE5BDE4BDE3BDE0E1E9BFE2
:1000E800E0E0E5BFE4BFEAB9E0E8E8B9E0E0E0BF96
:1000F800E6B9EDB9E6BF7894C89B04C0EAE7EBBD62
:10010800E2E103C0EDE3EBBDE9E0EABDF5CFFFCFE7
:00000001FF
