:040000000C943A0022
:100004000C9400000C9400000C9467000C94000005
:100014000C9400000C9400000C9400000C9400005C
:100024000C9400000C9400000C9400000C9400004C
:100034000C9400000C9400000C9400000C9400003C
:100044000C9400000C9400000C9400000C9400002C
:1000540064000000000001002D4E414E00494E4650
:100064000000060004005400010060025A00000071
:10007400F894EE27ECBBF1E0FBBFEBBFE5BF8DE0EE
:10008400A2E0BB27ED938A95E9F780E098E0A0E62B
:10009400ED930197E9F7E6E6F0E0859195910097F5
:1000A40061F0A591B59105901590BF01F0010590FF
:1000B4000D920197E1F7FB01F0CFEFE5EDBFE8E02A
:1000C400EEBFC0E6D2E00C9497000A921A92FA921C
:1000D4006A937A938A939A93AA93BA93EA93FA9334
:1000E400EFB7EA93EFE0E2BBA8EBBBE00E940602A5
:1000F400E991EFBFF991E991B991A9919991899108
:1001040079916991F990199009901895AA93E881C9
:10011400E770E066E7B9369A3699FECFACE3B0E013
:100124000E940602E5B121960895E0E0EABBEBBB2C
:10013400E8E1E7BBE0E0E8BBEFEFE4BBE0E0E5BB10
:10014400EFE0E1BBE0E0E2BBEBE6E3BFE0E0E2BF0F
:10015400E0E8ECBFE0E0EFBDEEBDEDBDECBDE7BD1A
:10016400E6BDEBBDEABDE9BDE8BDE2BDE5BDE4BD6C
:10017400E3BDE9BFEBB7E062EBBFE0E0E5BFE0E47D
:10018400E4BFE0E2EABFE0E0EAB9E0E8E8B9E0E2CF
:10019400E7B9E3E8E6B9E0E0E0BFEDB9E6BF78949B
:1001A4002497A1E0B3DFF0E0EA83FB83A0E0AEDFB5
:1001B400F0E0E883F983AA81BB81ECD0A881B981FE
:1001C40003D02496EDCFFFCF0E94F301EA81FB8197
:1001D400309719F4ECE4FFEF45C0EA30A0E0FA07E9
:1001E40019F4E0E7FFEF3EC0E531A0E0FA0719F4A7
:1001F400E4E9FFEF37C0E032A0E0FA0719F4E8EBD6
:10020400FFEF30C0EA32A0E0FA0719F4ECEDFFEF9B
:1002140029C0E533A0E0FA0719F46624772423C043
:10022400E034A0E0FA0719F4E4E2F0E01BC0EA3499
:10023400A0E0FA0719F4E8E4F0E014C0E535A0E022
:10024400FA0719F4ECE6F0E00DC0E036A0E0FA0796
:1002540019F4E0E9F0E006C0EA36A0E0FA0719F480
:10026400E4EBF0E03F01D301A819B909E4E2F0E0BE
:100274000E9427028F0100240614070464F400245A
:100284000016010624F40E94F80153D003C00E9412
:10029400F80166D01EC0062C072861F40024081457
:1002A400090424F40E94F8015BD003C00E94F80101
:1002B40012D00FC00024601470045CF400240016F3
:1002C400010624F40E94F80106D003C00E94F8013C
:1002D40019D043015BC00E94F30100E010E00E94CA
:1002E400FD017CF4E3E00E940202E6E00E940202C7
:1002F400ECE00E940202E9E00E9402020F5F1F4F3D
:10030400EECF44C00E94F30100E010E00E94FD0122
:100314007CF4ECE00E940202E6E00E940202E3E0C8
:100324000E940202E9E00E9402020F5F1F4FEECF1B
:100334002DC00E94F30100E010E00E94FD017CF456
:10034400E0E30E940202E0E60E940202E0EC0E9466
:100354000202E0E90E9402020F5F1F4FEECF16C0B7
:100364000E94F30100E010E00E94FD017CF4E0EC47
:100374000E940202E0E60E940202E0E30E940202FE
:10038400E0E90E9402020F5F1F4FEECF198108813E
:1003940024960895BA93AA93A881B981D59717D0C2
:1003A400ECBFA881B981D6971CF0C49AE7E00CC0D1
:1003B400A881B981D59731F4C498EFE0E2BBE0E0BD
:1003C400ECBF03C0C498EEE0E2BB22960895BA9352
:1003D400AA93E991F99130971AF4E095F095319642
:1003E4000895BA93AA931A930A930895D8010E9480
:1003F400E901DF010895EA81FB810E171F070895C3
:10040400E5BBD2010C940602109639F080ED97E01A
:100414000197F1F7A8951197C9F70895F195E1951A
:10042400F04008950024112490E1AA0FBB1F001C82
:10043400111C0E1A1F0A18F40E0E1F1E01C0A16013
:100444009A9599F7FD01D001089504D0EBDF0EF4DD
:10045400E5DF0895E894F7FF02C0E0DF6894B7FF92
:1004640006C0A095B095119600F8039400FA08957B
:00000001FF
