:060000000C9443000C9477
:1000060070000C9483000C9488000C9400000C94EF
:1000160000000C9400000C9490000C9400000C94CA
:1000260000000C9400000C9400000C9400000C944A
:1000360000000C9400000C9400000C9400000C943A
:1000460000000C9400000C9400000C9400000000CA
:10005600310005001500090063003F065B4F666D21
:100066007D077F6F0A000A00040054000100600249
:100076005E000A0065026000010071026A0000006D
:10008600F894EE27ECBBF1E0FBBFEBBFE5BF8DE0DC
:10009600A2E0BB27ED938A95E9F780E098E0A0E619
:1000A600ED930197E9F7ECE6F0E0859195910097DD
:1000B60061F0A591B59105901590BF01F0010590ED
:1000C6000D920197E1F7FB01F0CFEFE5EDBFE8E018
:1000D600EEBFC0E6D2E00C94FC01EA93EFB7EA93D8
:1000E600E09162020E948003E0936202E0E0E09306
:1000F6006302E0936402E2BBE991EFBFE9911895D0
:10010600BCD111F0BBD0CAD10FC0B7D129F0B79B73
:1001160002C067D001C016D007C0AFD129F4E2B340
:10012600A1E0EA27E2BBB6D0E991EFBFF991E991E8
:10013600B991A9919991899179916991F9901990BB
:1001460009901895B2D159F4F40131964F01E8E1BE
:10015600F0E08E169F0614F08824992441C0E13001
:10016600A0E0FA0759F4F30131963F01ECE3F0E021
:100176006E167F0614F06624772432C0E230A0E0C3
:10018600FA0779F498D13196FE93EE9399D1A43675
:10019600E0E0BE072CF0E0E0E0936002E09361024D
:1001A6001FC0E330A0E0FA0761F4F60131966F0153
:1001B600EDE0F0E0CE16DF061CF0E1E0F0E06F01C6
:1001C6000FC0E430A0E0FA0759F4F50131965F015B
:1001D600EFE1F0E0AE16BF061CF0E1E0F0E05F01F3
:1001E600089563D159F4F40131974F010024801426
:1001F60090041CF4E7E1F0E04F013FC0E130A0E0DD
:10020600FA0759F4F30131973F0100246014700492
:100216001CF4EBE3F0E03F0130C0E230A0E0FA0767
:1002260079F449D13197FE93EE93A0916102AA2306
:1002360032F4E3E6F0E0E0936002F09361021DC061
:10024600E330A0E0FA0759F4F60131976F01002474
:10025600C014D0041CF4ECE0F0E06F010EC0E430F2
:10026600A0E0FA0751F4F50131975F010024A014CC
:10027600B0041CF4EEE1F0E05F010895A3E6B2E0FD
:1002860024D129D115972CF0E0E0E0936302E093A6
:1002960064020895F20131962F01ECE3F0E04E1668
:1002A6005F062CF0F30131963F0144245524ECE31C
:1002B600F0E06E167F062CF0F40131964F016624AD
:1002C6007724E8E1F0E08E169F062CF0F5013196D2
:1002D6005F0188249924EFE1F0E0AE16BF0634F002
:1002E600F60131966F01E1E0F0E05F01EDE0F0E04C
:1002F600CE16DF063CF0DFD03196FE93EE93E1E0BA
:10030600F0E06F010895ECD032D149D163D17AD1B2
:1003160091D16BC0E5D0DFD0119799F4A6D10E9498
:10032600B90354F4E7EFA6D1EBEFA4D1AAD1ACD12F
:10033600B0D10CF0B2D104C01AD1B6D10CF0AED007
:1003460001C015D1B2D091F4BDD15CF4EDEF92D1DC
:10035600EEEF90D1EFE7E5BB94D1B8D10CF09DD18B
:1003660004C01DD1A1D10CF099D001C018D1B3D0D1
:10037600149781F4A7D14CF4EFEBAAD1EFEDA8D1F5
:1003860080D1A4D10CF089D104C024D18DD10CF038
:1003960085D001C01FD19FD0139781F493D14CF41F
:1003A600EFEE96D1E7EF94D16CD190D10CF075D1E8
:1003B60004C028D179D10CF071D001C023D18BD0E3
:1003C600129791F47FD15CF4EDEF82D1EEEF80D1FC
:1003D600EFE7E8BB56D17AD10CF05FD104C02AD141
:1003E60063D10CF05BD001C025D10E94C403649692
:1003F6000895EFEFEABBE0E0EBBBEBE7E7BBE0E03D
:10040600E8BBEFE8E4BBE0E0E5BBE1E0E1BBE0E050
:10041600E2BBE3BFE2BFECBFEFBDECE0EEBDE0E068
:10042600EDBDECBDE7BDE6BDEAE7EBBDE2E1EABD49
:10043600E0E0E9BDE8BDE2BDE5BDE4BDE3BDE0E168
:10044600E9BFEBB7E06EEBBFEAE0E5BFE0E0E4BF93
:10045600E0EEEABFE0E0EAB9E0E8E8B9E0E0E0BFF4
:10046600E6B9EDB9E6BF7894E0916202E03011F0AA
:1004760051DF01C048DFF8CFFFCF0A921A92FA92F5
:100486006A937A938A939A93AA93BA93EA93FA937E
:10049600EFB7EA93E0916202E0300895E1E0F0E020
:1004A600E0936F02F09370020895E0916302F09179
:1004B600640230970895A0E6B2E0ED91FD910895AB
:1004C600A0916002B09161020895ED91FD9131967F
:1004D600FE93EE930895A0916302B091640208958D
:1004E6002E970E94BD03ECDFEAE0F0E00E9498033D
:1004F6008F01E6DFEAE0F0E00E949D039F01D6014E
:10050600EAE0F0E00E949803AF01D601EAE0F0E0ED
:100516000E949D03EA8BFB8BD501EAE0F0E00E9486
:100526009803E88BF98BD501EAE0F0E00E949D0381
:10053600EE87FF87D401EAE0F0E00E949803EC879B
:10054600FD87D401EAE0F0E00E949D03EA87FB877D
:10055600D301EAE0F0E00E949803E887F987D30127
:10056600EAE0F0E00E949D03EE83FF830895E7EF43
:10057600E5BBEE81FF81EB59FD4FE081EBBBA2E0CD
:10058600B0E00E947203EBEFE5BBE885F985EB5915
:10059600FD4FE081EBBBA2E0B0E00C947203EDEFFF
:1005A600E5BBEA85FB85EB59FD4FE081EBBBA2E09D
:1005B600B0E00E947203EEEFE5BBEC85FD85EB59DA
:1005C600FD4FE081EBBBA2E0B0E00E947203EFE7D3
:1005D600E5BB0895EFEBE8BBEE85FF85EB59FD4FD4
:1005E600E081EBBBA2E0B0E00E947203EFEDE8BB56
:1005F600E889F989EB59FD4FE081EBBBA2E0B0E059
:100606000C947203EFEEE8BBEA89FB89EB59FD4FC8
:10061600E081EBBBA2E0B0E00E947203E7EFE8BB2B
:10062600A5E6B2E0A40FB51FEC91EBBBA2E0B0E0EB
:100636000C947203EDEFE8BBA5E6B2E0A20FB31F80
:10064600EC91EBBBA2E0B0E00E947203EEEFE8BBD8
:10065600A5E6B2E0A00FB11FEC91EBBBA2E0B0E0C3
:100666000E947203EFE7E8BB0895A0916F02B09174
:1006760070020895E5BBE0E0EBBBA2E0B0E00C94AD
:100686007203AFE6B2E021CFE0917102F0917202FF
:100696000895EBDFAE17BF070895EFEFFFEFE09386
:1006A6006F02F09370020895AFE6B2E0ED91FD910E
:1006B6003197FE93EE93E8DF0E947C03D6DFEA17BC
:1006C600FB070895D2DF0E94B9030895DDDFE1CF6D
:1006D600E8BBE0E0EBBBA2E0B0E00C94720310963E
:1006E60039F080ED97E00197F1F7A8951197C9F7D2
:1006F6000895F195E195F0400895EE23E1E009F0C3
:10070600EE2708950024112490E1AA0FBB1F001CB8
:10071600111C0E1A1F0A18F40E0E1F1E01C0A1602E
:100726009A9599F7FD01D001089512D0EBDF0EF4EA
:10073600E0DF0895E894B7FF04C0A095B095119640
:100746006894F7FDD6DFDEDFFD010EF4D2DF0895F3
:10075600E894F7FF02C0CDDF6894B7FF06C0A09506
:10076600B095119600F8039400FA089500240A162D
:100776000B0608955A934A933A932A931A930A9327
:1007860008955D814C813B812A81198108810895F4
:00000001FF
