:060000000C94D8000C94E2
:1000060000000C9400000C9400000C9400000C946A
:1000160000000C9400000C9400000C9400000C945A
:1000260000000C9405010C9400000C9400000C9444
:1000360000000C9400000C9400000C9400000C943A
:1000460000000C9400000C9400000C940000102793
:10005600E80364000A00010000100001100001001E
:100066000000000000002E002D002E2D002D2E2E4B
:100076002E002D2E2D2E002D2E2E002E2E2D2E0056
:100086002D2D2E002E2E2E2E002E2D2D2D002D2E1A
:100096002D002E2D2E2E002E2D2D2E002D2D2E2D0B
:1000A600002E2E2D002E2E2E2D002E2D2D002D2E27
:1000B6002E2D002D2E2D2D002D2D2E2E002E2D2EEB
:1000C6002D2E2D002D2D2D2D2D00496E7075742091
:1000D600596F7572204D6F72736520436F646500AA
:1000E60080C0060004006600020060026C00020088
:1000F60062026E000300640270000500670273006E
:1001060005006C027800040071027D000200750291
:100116006C0005007702810004007C028600050061
:1001260080028A00030085027500050088028F00A0
:1001360004008D02940005009102980003009602C7
:100146009100030099027A0004009C0290000500C9
:10015600A0029D000500A502A2000400AA027900E3
:100166000400AE0274000200B2026E000400B40283
:10017600A7000500B802AB000400BD02B0000500F0
:10018600C102B4000500C602B9000500CB02BE00DC
:100196000700D002C3000600D702CA001600DD021F
:1001A600D00002004303E6000000F894EE27ECBB03
:1001B600F1E0FBBFEBBFE5BF8DE0A2E0BB27ED930F
:1001C6008A95E9F780E098E0A0E6ED930197E9F7D4
:1001D600E8EEF0E085919591009761F0A591B591D3
:1001E60005901590BF01F00105900D920197E1F77A
:1001F600FB01F0CFEFE5EDBFE8E0EEBFC0E6D2E0F1
:100206000C94A1020A921A92FA926A937A938A93AA
:100216009A93AA93BA93EA93FA93EFB7EA93B09BA9
:1002260008C066247724F20131962F01E1E08E2E74
:1002360025C0E0E7F7E14E165F062CF00E94A60304
:10024600A0E6B2E008C000240414050434F40E94B9
:10025600A603A2E6B2E00E94F10244245524F3016B
:1002660031963F01E0E1F7E26E167F0614F0882032
:1002760009F404C0E1E09E2E66247724E991EFBFDD
:10028600F991E991B991A991999189917991699198
:10029600F9901990099018950E94A603A4E6B2E079
:1002A6000E940203E03021F4D501E1E4EC9345C15C
:1002B6000E94A603A7E6B2E00E940203E03021F402
:1002C600D501E2E4EC9339C10E94A603ACE6B2E0A4
:1002D6000E940203E03021F4D501E3E4EC932DC142
:1002E6000E94A603A1E7B2E00E940203E03021F4D7
:1002F600D501E4E4EC9321C10E94A603A5E7B2E090
:100306000E940203E03021F4D501E5E4EC9315C127
:100316000E94A603A7E7B2E00E940203E03021F4A0
:10032600D501E6E4EC9309C10E94A603ACE7B2E06E
:100336000E940203E03021F4D501E7E4EC93FDC00E
:100346000E94A603A0E8B2E00E940203E03021F476
:10035600D501E8E4EC93F1C00E94A603A5E8B2E05B
:100366000E940203E03021F4D501E9E4EC93E5C0F4
:100376000E94A603A8E8B2E00E940203E03021F43E
:10038600D501EAE4EC93D9C00E94A603ADE8B2E039
:100396000E940203E03021F4D501EBE4EC93CDC0DA
:1003A6000E94A603A1E9B2E00E940203E03021F414
:1003B600D501ECE4EC93C1C00E94A603A6E9B2E025
:1003C6000E940203E03021F4D501EDE4EC93B5C0C0
:1003D6000E94A603A9E9B2E00E940203E03021F4DC
:1003E600D501EEE4EC93A9C00E94A603ACE9B2E005
:1003F6000E940203E03021F4D501EFE4EC939DC0A6
:100406000E94A603A0EAB2E00E940203E03021F4B3
:10041600D501E0E5EC9391C00E94A603A5EAB2E0FF
:100426000E940203E03021F4D501E1E5EC9385C09A
:100436000E94A603AAEAB2E00E940203E03021F479
:10044600D501E2E5EC9379C00E94A603AEEAB2E0DC
:100456000E940203E03021F4D501E3E5EC936DC080
:100466000E94A603A2EBB2E00E940203E03021F450
:10047600D501E4E5EC9361C00E94A603A4EBB2E0CB
:100486000E940203E03021F4D501E5E5EC9355C066
:100496000E94A603A8EBB2E00E940203E03021F41A
:1004A600D501E6E5EC9349C00E94A603ADEBB2E0A8
:1004B6000E940203E03021F4D501E7E5EC933DC04C
:1004C6000E94A603A1ECB2E00E940203E03021F4F0
:1004D600D501E8E5EC9331C00E94A603A6ECB2E094
:1004E6000E940203E03021F4D501E9E5EC9325C032
:1004F6000E94A603ABECB2E00E940203E03021F4B6
:10050600D501EAE5EC9319C00E94A603A0EDB2E07E
:100516000E940203E03021F4D501EEE2EC930DC017
:100526000E94A603A7EDB2E00E940203E03029F480
:10053600D501E0E0EC93E09325030895EFEFEABBE5
:10054600E0E0EBBBE7BBE8BBE4BBE5BBE1BBE2BB82
:10055600EAE0E3BFE0E0E2BFE3E6ECBFE0E0EFBDE8
:10056600E8E0EEBDE0E0EDBDECBDE7BDE6BDEAE7E7
:10057600EBBDE2E1EABDE0E0E9BDE8BDE2BDE5BD17
:10058600E4BDE3BDE2E0E9BFE0E0E5BFE4BFEAB910
:10059600E0E8E8B9E0E0E0BFE6B9EDB9E6BFA0E122
:1005A6000E9477037894ADEDB2E00E94660399202D
:1005B60099F072DEE5E2F3E0FA93EA93D5010E9440
:1005C600F1020E944303A5E2B3E00E946603E0E065
:1005D600E093F30299248824EACFFFCFBA93AA9333
:1005E600E991F991A991B991CD016D916623E9F748
:1005F600119761916D936623E1F7FC010895BA9313
:10060600AA93E991F991A991B9916D9171916717A1
:1006160021F46623D1F7EE270895671BE1F3E1E0A5
:1006260008F4E2500895AA93EBB3EF70AE2FE88179
:10063600E07FEA2BEBBB8DE08A95F1F7DA9A8DE045
:100646008A95F1F7DA988DE08A95F1F77AC0AA9340
:10065600A881E9DFE881E295E883A881E4DF85E8FF
:100666008A95F1F76EC0AA93E881F0E0ED5BFC4F46
:10067600E081A981AE0FEBDFD980C880229608956C
:10068600A2E00E94AB03ACE0E2DFA1E00E94AB0374
:10069600E0E0CE2EDE2E0895AA93A881AA3021F09E
:1006A600E0914703DE1648F0E0E0EA93C394AC2DF0
:1006B600DADFA881AA3009F444C0D394D89AA88175
:1006C600C6DFD8983EC0BA93AA931A93A981BA8175
:1006D600ED91A983BA831E2FE03019F0A12FDCDF3C
:1006E600F5CF188123960895AA93EAB3E06FEABB83
:1006F600D29AD09AD19ADA98D898D998E881E09384
:100706004703E058E0934503E881E054E09346034D
:10071600A4E1B0E00E94B9030E94B1030E94B103B4
:100726000E94B103A0E27FDF88EC90E00197F1F729
:10073600A8E28DDFA4E08BDFA5E889DFA6E087DFEE
:100746009FDF21960895E3EFF2E0FA93EA93089586
:100756000E942A03A3E0B0E00C94B903A0E30E9430
:10076600160388EC90E00197F1F70895109639F09A
:1007760080ED97E00197F1F7A8951197C9F70895CD
:00000001FF
