:100000000C94A9000C9400000C9400000C940000C7
:100010000C9400000C9400000C9400000C94000060
:100020000C9400000C9400000C9400000C94000050
:100030000C9400000C9400000C9400000C94000040
:100040000C9400000C9400000C9400000C94000030
:100050000C9400001027E80364000A00010000105F
:1000600000011000010001003500360037003800A3
:1000700039003000303A312C20313A2B0031003039
:100080003A322C20313A2D003200303A332C2031D4
:100090003A78003300303A342C20313A2F003400C3
:1000A000303A3D2C20313A2E003D000080C0010046
:1000B0002D4E414E00494E460000020006006600EB
:1000C000020060026800020062026A00020064022C
:1000D0006C00020066026E000200680270000200FE
:1000E0006A02720009006C027400020075027D0051
:1000F000020077027B00090079027F000200820281
:100100008800020084028600090086028A0002003C
:100110008F02930002009102910009009302950062
:1001200002009C029E0002009E029C000900A002A8
:10013000A0000200A902A7000200AB02A900010072
:10014000AD0269000200C202AC000100C602AE00AE
:100150000000F894EE27ECBBF1E0FBBFEBBFE5BF7E
:100160008DE0A2E0BB27ED938A95E9F780E098E067
:10017000A0E6ED930197E9F7EAEBF0E08591959120
:10018000009761F0A591B59105901590BF01F00120
:1001900005900D920197E1F7FB01F0CFEFE5EDBF80
:1001A000E8E0EEBFC0E6D2E00C94D600EFEFEABB89
:1001B000E0E0EBBBE0EBE7BBE0E0E8BBEFE0E4BB9B
:1001C000E0E0E5BBE1BBE2BBE3BFE2BFECBFEFBDFC
:1001D000EEBDEDBDECBDE7BDE6BDEBBDEABDE9BDE5
:1001E000E8BDE2BDE5BDE4BDE3BDE9BFE5BFE4BFF9
:1001F000EAB9E0E8E8B9E0E0E0BFE6B9E0E5EDB98A
:10020000E0E0EEB9E6BFA0E10E941E0323D15E2E1E
:10021000EFEFE51509F41CC1772031F00E94EC02E4
:10022000E0E0E093AE02772415D1EF3FE9F7A4E1D7
:10023000B0E00E948C03E5E05E1618F0E9E0E515F9
:1002400008F434C0E1E06E2EE52DF0E0E530A0E0EA
:10025000FA0729F40E946903A0E6B2E023C0E63061
:10026000A0E0FA0729F40E946903A2E6B2E01AC0EE
:10027000E730A0E0FA0729F40E946903A4E6B2E09F
:1002800011C0E830A0E0FA0729F40E946903A6E64D
:10029000B2E008C0E930A0E0FA0739F40E9469032F
:1002A000A8E6B2E00E944C036624CEC0552041F47B
:1002B00066240E946903AAE6B2E00E944C03C4C00F
:1002C000E4E0E51518F0E1E05E1640F4EBE0E5153A
:1002D00019F0EAE0E51509F401C0B6C0E52DF0E03B
:1002E000E130A0E0FA07F1F477D1ACE6B2E095D1C5
:1002F000B1D0EF3FE9F30E946E0341F40E9469031D
:10030000A5E7B2E00E944C0366240BC0E1E0E415CF
:1003100041F4662031F40E946903A7E7B2E00E942D
:1003200073038EC0E230A0E0FA07F1F455D1A9E7DB
:10033000B2E073D18FD0EF3FE9F30E946E0341F436
:100340000E946903A2E8B2E00E944C0366240BC03D
:10035000E1E0E41541F4662031F40E946903A4E869
:10036000B2E00E9473036CC0E330A0E0FA07F1F43E
:1003700033D1A6E8B2E051D16DD0EF3FE9F30E944E
:100380006E0341F40E946903AFE8B2E00E944C039F
:1003900066240BC0E1E0E41541F4662031F40E94CC
:1003A0006903A1E9B2E00E9473034AC0E430A0E00F
:1003B000FA07F1F411D1A3E9B2E02FD14BD0EF3F0E
:1003C000E9F30E946E0341F40E946903ACE9B2E0D4
:1003D0000E944C0366240BC0E1E0E41541F4662062
:1003E00031F40E946903AEE9B2E00E94730328C0B1
:1003F000EB30A0E0FA07D1F4EFD0A0EAB2E00DD1E3
:1004000029D0EF3FE9F30E946E0321F468D0E1E0C8
:100410007E2E0BC0E1E0E41541F4662031F40E9429
:100420006903A9EAB2E00E9473030AC0EA30A0E0BF
:10043000FA0751F4E0E0E093AE02E1E06E2E77249B
:10044000A8ECB0E00E948C03C7D0AEEAB2E0E5D0E1
:10045000DDCEFFCF1A931FEFA89AA9980E947803C8
:100460009C9B02C011E006C09D9B02C012E002C02E
:100470009E9913E0A898A99A0E9478039C9B02C0B9
:1004800014E006C09D9B02C015E002C09E9916E0D4
:10049000A898A998AA9AAB98A5E0B0E00E948C030E
:1004A0009C9B02C017E006C09D9B02C018E002C0E2
:1004B0009E9919E0A898A998AA98AB9AA5E0B0E0EF
:1004C0000E948C039C9B02C01AE006C09D9B02C048
:1004D00010E002C09E991BE0E12F199108950E943F
:1004E000960331E0AEEAB2E01CD00E946903ABEAA9
:1004F000B2E00E944C03ADEAB2E013D03CD0D80188
:10050000EC93AC91A33231F00E946903D8010E94B0
:100510004C0301C030E0303071F70E949B032496F9
:100520000895BA93AA930E949603AC81BD810E945C
:100530005D038F0120E030E02017310784F4F901DA
:10054000AC81BD81AE0FBF1FEC91EFB9779BFECFA1
:10055000A2E0B0E00E948C032F5F3F4FEDCFE3E2BB
:10056000EFB9779BFECFA2E0B0E00E948C030E941F
:100570009B0326960895779BFECFEFB10895AA932B
:10058000EBB3EF70AE2FE881E07FEA2BEBBB8DE0A1
:100590008A95F1F7DA9A8DE08A95F1F7DA988DE08D
:1005A0008A95F1F777C0AA93A881E9DFE881E295FF
:1005B000E883A881E4DF85E88A95F1F76BC0AA9308
:1005C000E881F0E0EE53FD4FE081A981AE0FEBDF53
:1005D0009980888022960895A2E00E947E03ACE074
:1005E000E2DFA1E00E947E03E0E08E2E9E2E0895C1
:1005F000AA93A881AA3011F09B1448F0E0E0EA9396
:100600008394A82DDCDFA881AA3009F443C0939419
:10061000D89AA881C8DFD8983DC0BA93AA931A93F4
:10062000A981BA81ED91A983BA831E2FE03019F018
:10063000A12FDEDFF5CF188123960895AA93EAB3A0
:10064000E06FEABBD29AD09AD19ADA98D898D99822
:10065000B880E881E058E093C402E881E054E09378
:10066000C502A4E1B0E00E948C030E9484030E94B2
:1006700084030E948403A0E282DF88EC90E001976B
:10068000F1F7A8E290DFA4E08EDFA5E88CDFA6E01A
:100690008ADFA2DF21960895BA93AA93E991F9918E
:1006A000A991B991CD016D916623E9F711976191F7
:1006B0006D936623E1F7FC010895BA93AA93A9917B
:1006C000B991EE27FF276D91662311F03196FBCF8C
:1006D0000895EEEAF2E0FA93EA9308950E942A025E
:1006E0004E2E442008950E944C03E1E06E2E0895A2
:1006F000AA98AB98A5E0B0E00C948C030E94D302BA
:10070000A3E0B0E00C948C03A0E30E94BF0288EC4D
:1007100090E00197F1F70895109639F080ED97E099
:100720000197F1F7A8951197C9F708953A932A937D
:100730001A930A9308953B812A81198108810895AB
:00000001FF
