:100000000C9445000C9400000C9400000C9400002B
:100010000C9400000C9400000C9400000C94000060
:100020000C9400000C9400000C9400000C94000050
:100030000C9400000C9400000C9400000C94000040
:100040000C9400000C9400000C9400000C94000030
:100050000C9400001027E80364000A00010000105F
:10006000000110000100000080C001002D4E414E33
:1000700000494E46000001000500660002008E05A2
:100080006800010092056A000000F894EE27ECBBBE
:10009000F1E0FBBFEBBFE5BF8DE0A2E0BB27ED9336
:1000A0008A95E9F780E098E0A0E6ED930197E9F7FB
:1000B000E6E7F0E085919591009761F0A591B59103
:1000C00005901590BF01F00105900D920197E1F7A1
:1000D000FB01F0CFEFE5EDBFE8E0EEBFC0E6D2E018
:1000E0000C949D00E0E0E0936002E093C402E09392
:1000F0002803E0938C03E0938D03E0939A03E0934D
:100100008E03E0938F03E0939003E0939103E093D9
:100110009203E0939303E0939403E0939503ECE35D
:10012000FEE069E470ECE0939603F093970360932C
:1001300098037093990355240895EFEFEABBE0E02C
:10014000EBBBE0E4E7BBE0E0E8BBE4BBE5BBE1BB65
:10015000E2BBE3BFE2BFECBFEFBDEEBDEDBDECBD6A
:10016000E7BDE6BDEBBDEABDE9BDE8BDE2BDE5BD6D
:10017000E4BDE3BDE9BFE5BFE4BFEAB9E0E8E8B943
:10018000E0E0E0BFE6B9E0E4EDB9E0E0EEB9E6BFFB
:10019000A0E180D1A8D0A6DFFDCFFFCF0E944C0701
:1001A000A0E6B2E00E946D048F0120E030E020174D
:1001B00031078CF50E94D504AB3261F00E94D50462
:1001C000AD3241F00E94D504A83721F00E94D50439
:1001D000AF3251F4A0E6B2E0A20FB31FEC91E0936E
:1001E0008C03E1E05E2E14C0A0E6B2E0A20FB31FC4
:1001F000EC91E0938D03552019F0E8E2F3E002C0A2
:10020000E4ECF2E0FA93EA93ADE8B3E00E944F0425
:100210002F5F3F4FCCCFA4ECB2E00E943F03E093AE
:100220008E03F0938F036093900370939103A8E281
:10023000B3E00E943F03E0939203F0939303609333
:10024000940370939503E0918C03F0E0EB32A0E00F
:10025000FA0729F40E94DB040E940F0628C0ED3241
:10026000A0E0FA0799F4A0919203B09193038091D2
:10027000940390919503E0918E03F0918F03609128
:100280009003709191030E94080611C0E837A0E026
:10029000FA0729F40E94DB040E945F0608C0EF32CF
:1002A000A0E0FA0761F40E94DB040E94AD06E0932F
:1002B0009603F09397036093980370939903E091EA
:1002C0009603F091970360919803709199030E94AF
:1002D0003307E3E0EA93AAE9B3E00E9478020E94C0
:1002E00053070C94D3040E944C0700E010E020E078
:1002F00030E06DD0D901EC93AC91A33261F0A0E66F
:10030000B2E00E946D048F01E0E6F2E0FA93EA9316
:10031000D9010E944F04D901AC91A33251F73EDFBD
:10032000A0919603B09197038091980390919903BF
:10033000AC33EEE0BE07E9E48E07E0EC9E0721F067
:1003400077D0A0E6B2E095D0E0E6F2E0FA93EA9347
:10035000E0E0EA93A4E6B0E00E943F04AAE9B3E03B
:100360000ED0EAE9F3E0FA93EA93E0E0EA93A4EF2F
:10037000B1E00E943F040E9453070C94D304BA9347
:10038000AA930E944C07AC81BD810E946D048F012D
:1003900020E030E0201731076CF419D0F901AC816E
:1003A000BD81AE0FBF1FEC91EFB9779BFECF2F5FE2
:1003B0003F4FF0CFE3E2EFB9779BFECF4FB0A5E020
:1003C000B0E00E945F050E94530726960895779B30
:1003D000FECFEFB10895AA93EBB3EF70AE2FE88193
:1003E000E07FEA2BEBBB8DE08A95F1F7DA9A8DE09E
:1003F0008A95F1F7DA988DE08A95F1F777C0AA939C
:10040000A881E9DFE881E295E883A881E4DF85E857
:100410008A95F1F76BC0AA93E881F0E0E257FA4FB2
:10042000E081A981AE0FEBDF798068802296089584
:10043000A2E00E94EC04ACE0E2DFA1E00E94EC0448
:10044000E0E06E2E7E2E0895AA93A881AA3011F0C6
:10045000791448F0E0E0EA936394A62DDCDFA881EC
:10046000AA3009F443C07394D89AA881C8DFD898F9
:100470003DC0BA93AA931A93A981BA81ED91A98339
:10048000BA831E2FE03019F0A12FDEDFF5CF1881DF
:1004900023960895AA93EAB3E06FEABBD29AD09A62
:1004A000D19ADA98D898D9989880E881E058E09362
:1004B0009005E881E054E0939105A4E1B0E00E944A
:1004C0005F050E94F2040E94F2040E94F204A0E27E
:1004D00082DF88EC90E00197F1F7A8E290DFA4E0DA
:1004E0008EDFA5E88CDFA6E08ADFA2DF21960895E3
:1004F000BA93AA932497E0E0E883E983EA83EFE3E1
:10050000EB831A930A93EB85FC85EF3FAFEFFA0775
:1005100039F40E94FA04ACE6B0E00E946004ABC07B
:10052000EF3FAFE7FA0739F40E94FA04ADE6B0E016
:100530000E946004A0C0AC85AA2362F4E985FA8514
:100540006B857C850E9469050E94FF040E9404055A
:10055000EDE2EC93A885A73010F0E6E0E887188577
:10056000E12F1150E03039F00E940B050E94100578
:100570000E941705F5CF0E941C050E940F060E94DD
:10058000FF0410E00E9425050E9417050E941C052B
:100590000E94F20688F00E940B050E942A050E9424
:1005A00017051F5F173238F00E94FA04A1E7B0E088
:1005B0000E94600460C0EACF103029F40E94040554
:1005C000E0E3EC932DC0E12F1150E03049F10E949F
:1005D0000B050E941005A0E0B0E080E09FE30E94C0
:1005E0000F06DF01CB010E94BE040E9417050E9486
:1005F0001C050E94AD060E949C050E2F0E9404055A
:10060000E02FE05DEC93E02FF0E00E940B050E94EC
:1006100031050E945F060E9436050E943B05D3CF3C
:10062000E885E03021F10E940405EEE2EC93E885D4
:10063000E150E887EF5FD9F00E9436050E942A0555
:100640000E94FF04E985FA856B857C850E949C05E4
:100650000E2F0E940405E02FE05DEC93E02FF0E008
:100660000E9436050E9431050E943B05E0CFAE8115
:10067000BF81E0E0EC93198108812D960895BA932B
:10068000AA932A970E944A07E0E0E887E987EA8769
:10069000EB87A889B989EC915E2FAE2F0E94820466
:1006A000E03031F0E889F9893196E88BF98BF1CFA8
:1006B000E0E0EF835B3221F05D3239F4E1E0EF837B
:1006C000E889F9893196E88BF98BE0E04E2F5E2FAF
:1006D00008891989A889B989AC910E947904E03008
:1006E00049F4A889B989AC91EEE20E941F075E2FF8
:1006F000E03039F0452BE889F9893196E88BF98BA0
:10070000E9CF28893989403029F1E889F989319779
:10071000E88BF98BA889B989AC91AE32D9F0A88958
:10072000B989EC91F0E0F0970E9440050E943105F4
:100730000E940F06DF01CB01E0E0F0E060E271E42F
:100740000E94AD060E944505E889F9893197E88B3A
:10075000F98BE0CF0E944A05A889B9891197A88B27
:10076000B98BA017B107B0F0EC91F0E0F0970E94C0
:1007700050050E9431050E945F060E9440050E94BC
:100780000F060E9445050E9450050E942A050E94FE
:100790005505E2CFD9012F5F3F4F5C91553619F0D7
:1007A000553409F059C0E0E04E2FEE83D9015C9139
:1007B0005B3221F05D3221F4E1E0EE832F5F3F4FA9
:1007C000D9012F5F3F4FEC915E2FAE2F0E9479042D
:1007D000E03039F0AAE04A02F001E50FE0534E2F75
:1007E000EFCF473268F0EF81E03029F0EFEFFFEF15
:1007F0006FE77FEF40C0EFEFFFEF6FE77FE73BC0B2
:1008000050E20E944A05503099F00E945A050E9419
:1008100050050E945F060E945505E42FE52331F044
:100820000E9450050E942A050E9455055695EBCF5F
:10083000EE81E03039F00E945A050E9440050E9486
:10084000AD0606C00E945A050E9440050E945F0640
:10085000E887F9876A877B87EF81E03041F0E88598
:10086000F9856A857B850E9469050E944505E885B2
:10087000F9856A857B850E94510762960895BA932F
:10088000AA93B981A881109631F0FC81EB816A812D
:1008900061931197E9F7EB81FC8125960895BA934E
:1008A000AA93E991F991A991B991CD016D9166232E
:1008B000E9F7119761916D936623E1F7FC010895C3
:1008C000BA93AA93E991F991A991B991CD010590B3
:1008D0000D920020E1F7FC010895BA93AA93A99123
:1008E000B991EE27FF276D91662311F03196FBCF6A
:1008F0000895AA93E1E0F991F03310F0FA3308F08B
:10090000EE270895AA93E1E0F991F03229F0F93049
:1009100010F0FE3008F0EE2708950E9438077B8122
:100920006A81F981E88177FB770F67FD7160972F06
:100930009E5781F078F0983190F4AA27BB2788273A
:1009400008948795B795A7959A95D1F7EA23FB2345
:10095000682305C0E8947727EE27FF2766276F777F
:10096000769508F4606877F9A991B9918991999180
:10097000EA17FB076807790797FB08950E94380775
:100980000E9429070E948D040E942E0719F40E94DC
:10099000240709C0E6F70E942407A0E0B0E080E841
:1009A0009FE30E94080624960895A0E6B2E0A20FF5
:1009B000B31FAC910895E0919203F091930360917D
:1009C000940370919503A0918E03B0918F03809151
:1009D00090039091910308950E94FF01A3E0B0E07D
:1009E0000C945F05A0E30E94EB0188EC90E0019776
:1009F000F1F70895EE81FF81FA93EA930895E9876C
:100A0000FA876B877C870895AE81BF811196AE838C
:100A1000BF8311970895AA81BB818C819D81089520
:100A2000EDECFCEC6CEC7DE30E945F060895EA833C
:100A3000FB836C837D830895EA81FB816C817D81DA
:100A4000A985BA858B859C850895E0E0F0E060E893
:100A50007FE30895E0E0F0E060E271E40E945F0669
:100A600008950E941A070E94D5050895A985BA85A0
:100A70008B859C8508950E943D070E940806BFCF84
:100A8000A885B9858A859B850895E887F9876A874F
:100A90007B870895DADFEC87FD876E877F8708956F
:100AA000AC85BD858E859F850895EC87FD876E8713
:100AB0007F870895EC85FD856E857F850895109666
:100AC00039F080ED97E00197F1F7A8951197C9F7F4
:100AD000089530976040704009F07058089555238C
:100AE00042F4503811F4E0FF04C03196691F791FB9
:100AF0006BF050E8572711F45F93CFC05F3F31F0A0
:100B0000660F000C57956795752F08955F93002029
:100B10000AF0CFC0C8C050E8192E1522880F991FBF
:100B20009527550F879550E8072E0522660F771FEA
:100B30007527550F67950895689401C0E8945F93F1
:100B4000F2DF703818F07F3F08F4A7C056E1571B5A
:100B5000AAF4519558300EF4593030F0EFEFFFEF12
:100B60006FEF7FE777F91AC077275523B9F0EE0FBB
:100B7000FF1F661F771F5A95D1F710C0772758308F
:100B800028F0EF2FF62F672F5850F9CF552331F06B
:100B900076956795F795E7955A95D1F700200AF471
:100BA00041D15F910895689401C0E8943097604006
:100BB0007040B1F0002426F0772312F4009432D173
:100BC000172E7EE1112032F07A95EE0FFF1F661F7F
:100BD000111CF9CFEF2FF62F612D5F938ADF5F9104
:100BE00008954F93AF01FD01DA01AB01BC01CA01C9
:100BF000402D012C142E4F910895EA0FFB1F681F02
:100C00000895E095F0956095EF5FFF4F6F4F089561
:100C10005F9381DF903871F150E8152604C05F932F
:100C20007ADF903839F1703821F1572F591B2BF1A9
:100C300012F4D7DFFACF583118F0AA27BB2788273C
:100C4000583028F0AB2FB82F88275850F9CF5523AC
:100C500029F08695B795A7955A95D9F7502D512526
:100C600072F0CBDF38F46795F795E795739513F439
:100C700020C0B7DF3EDF5F910895D8F7FBCFEA1BB6
:100C8000FB0B680B51F010F40094BBDF662392F36A
:100C9000EE0FFF1F661F7A95CBF7EE27FF2766271B
:100CA00077275F910895EFEFFFEF6FE77FEF5F9199
:100CB0000895EFEFFFEF6FE77FE75F9108955F9390
:100CC0002ADF703851F3903841F301240894791FDA
:100CD00023F41CF300203AF3ECCF0F921F932F93D1
:100CE0003F934F93112722279927689FA0018F9F39
:100CF000302D410D591F6B9F300D411D591F8E9F87
:100D000027D0BF9F25D06A9F23D0BE9F1DD0AF9F05
:100D10001BD0AE9F110D291F391F491F591FE32FEB
:100D2000F42F652F522F4F913F912F911F910F90CC
:100D300066232AF0550FEE1FFF1F661F02C0739532
:100D40004BF2CDDE5F910895100D211D391F02C0B9
:100D5000200D311D491F591F08955F93DCDE703847
:100D600021F411200AF49FCFA4CF903809F495CF35
:100D700001240894970B1BF4D4F30020F3CF792FB0
:100D80001F932F933F934F9311241127222733272B
:100D90004427552790E2AE17BF078607410730F07A
:100DA000AE1BBF0B860B410B089401C08894551FE6
:100DB000221F331F111CAA1FBB1F881F441F9A9597
:100DC00051F7F901612D4F913F912F911F916623AA
:100DD00032F0550FEE1FFF1F661F7A9543F27FDE3C
:100DE0005F91089599239AF0772342F0971748F07E
:100DF00029F4AE17BF07860720F031F09894889445
:100E000008959894089408951894889408957723E1
:100E1000C2F7971798F3A9F7EA17FB07680788F353
:100E200099F3ECCFF09560957095E195FF4F6F4F7A
:100E30007F4F08956F2F660F660B762F0895EA1780
:100E4000E1E009F0EE270895E881F9816A817B816C
:100E50000895A881B9818A819B810895E883F983E7
:100E60006A837B8308957A936A93FA93EA93089549
:100E70009A938A93BA93AA930895182E862F612D78
:100E8000192E972F712D1B2EBF2FF12D1A2EAE2F3D
:100E9000E12D08955A934A933A932A931A930A9309
:100EA00008955D814C813B812A81198108810895D3
:00000001FF
